:020000040800F2
:10000000D0060020CD010008531500087114000827
:1000100051150008D3020008151700080000000061
:10002000000000000000000000000000BD160008F5
:10003000D50200080000000055150008BF16000892
:10004000E7010008E7010008E7010008E7010008F0
:10005000E7010008E7010008E7010008E7010008E0
:10006000E7010008E7010008E7010008E7010008D0
:10007000E7010008E7010008E7010008E7010008C0
:10008000E7010008E7010008E7010008E7010008B0
:10009000E7010008E7010008E7010008E7010008A0
:1000A000E7010008E7010008E7010008E701000890
:1000B000E7010008E7010008E7010008E701000880
:1000C000E7010008E7010008E701000859150008EA
:1000D000E7010008E7010008E7010008E701000860
:1000E000E7010008E7010008E7010008E701000850
:1000F000E7010008E7010008E7010008E701000840
:10010000E7010008E7010008E7010008E70100082F
:10011000E7010008E7010008E7010008E70100081F
:10012000E7010008E7010008E7010008E70100080F
:1001300000F002F800F03AF80AA090E8000C8244BF
:100140008344AAF10107DA4501D100F02FF8AFF29C
:10015000090EBAE80F0013F0010F18BFFB1A43F0A5
:10016000010318473816000058160000103A24BF43
:1001700078C878C1FAD8520724BF30C830C144BF0C
:1001800004680C607047000000230024002500264E
:10019000103A28BF78C1FBD8520728BF30C148BFEA
:1001A0000B6070471FB51FBD10B510BD00F058F8AB
:1001B0001146FFF7F7FF01F0BFFA00F076F803B43D
:1001C000FFF7F2FF03BC00F07DF80000094880470C
:1001D00009480047FEE7FEE7FEE7FEE7FEE7FEE729
:1001E000FEE7FEE7FEE7FEE704480549054A064B41
:1001F000704700001317000831010008D0000020EC
:10020000D0060020D0020020D00200204FF00002D3
:1002100000B5134694469646203922BFA0E80C50FC
:10022000A0E80C50B1F12001BFF4F7AF090728BFD7
:10023000A0E80C5048BF0CC05DF804EB890028BF53
:1002400040F8042B08BF704748BF20F8022B11F07C
:10025000804F18BF00F8012B7047704770477047F8
:10026000754600F02BF8AE4605006946534620F06F
:100270000700854618B020B5FFF7B6FFBDE820405F
:100280004FF000064FF000074FF000084FF0000B52
:1002900021F00701AC46ACE8C009ACE8C009ACE805
:1002A000C009ACE8C0098D46704710B50446AFF3ED
:1002B00000802046BDE81040FFF781BF004870472E
:1002C0006C00002001491820ABBEFEE726000200AA
:1002D0007047FEE7704710B5062000F055F900F0B2
:1002E00061F800F089F8002806D000F009F8C0F3A2
:1002F0000740EF2801D0002010BD012010BD0000F4
:100300001CB59F20114C8DF80400002204212046CA
:1003100000F04CFA012101A800F094F84FF0FF33EF
:10032000032269460A4800F03FFE012204212046CC
:1003300000F03CFA9DF800009DF80110000440EA2E
:1003400001209DF8021008431CBD00000008014078
:10035000140000207CB504465A208DF800000122CC
:10036000002368468354521CD2B2052AFAD30B4D9F
:1003700000220421284600F019FA0521684600F001
:1003800061F84FF0FF33AA152146054800F00CFE36
:1003900001220421284600F009FA7CBD0008014032
:1003A0001400002038B56620124C8DF800000022A1
:1003B0000421204600F0FAF90121684600F042F8D5
:1003C00001220421204600F0F1F999218DF8001056
:1003D00000220421204600F0E9F90121684600F0DE
:1003E00031F801220421204600F0E0F9012000F05C
:1003F000CBF838BD0008014010B5C0B00124002181
:100400006A46FF205054491CC9B2FE29FAD1104651
:10041000FFF7A0FF9DF80000532800D000249DF8AE
:100420000100462800D000249DF80200442800D096
:1004300000249DF80300502800D0002440B020463E
:1004400010BD00000A4601464FF0FF33014800F09E
:1004500055BE0000140000202DE9F05F90F8211037
:100460000024022903D004218163012485E001686E
:100470000A6822F00E020A6001680A6822F001028E
:100480000A603F4E3E4FB215DFF8F4C0DFF8F0903F
:10049000DFF8ECA0DFF8E8B0DFF8E4E00168783FCF
:1004A00013011502ACF1640CA9F15009AAF13C0A40
:1004B000ABF1280BAEF1140E4FF48018B14227D9DE
:1004C000B9420ED0614512D049451DD0514518D0D2
:1004D000594518D0714501D1424615E0294EB14227
:1004E00001D1012210E0274E1436B14201D1102271
:1004F0000AE0244E2836B14206D0224A3C329142CC
:1005000001D11A4600E02A461E49091F0A602BE065
:10051000B94213D0614517D0494522D051451DD06D
:1005200059451DD0714501D142461AE0B14202D170
:100530004FF0807215E0134EB14201D1012210E05C
:10054000104E1436B14201D110220AE00D4E283669
:10055000B14206D00B4A3C32914201D11A4600E02A
:100560002A46074980394A60012180F8211000217C
:1005700080F82010416B01B188472046BDE8F09F0C
:10058000800002400804024070B5044600F014F9EF
:100590000546601C02D004480078044400F00CF9C1
:1005A000401BA042FAD370BD040000202DE9F84F93
:1005B000DFF8C0910024A9F1040B23464FF00F0887
:1005C00009F1040AABF1040ECCE00127A7403A4040
:1005D000BA4272D1DFF8A0C14D68A5EB0C066545A3
:1005E0002BD00DDC032D34D005DC35B3012D19D013
:1005F000022D2FD11BE0112D16D0122D2AD119E07A
:10060000B6F5881F19D006DCB6F5803F15D0B6F5D3
:10061000801F1FD111E0B6F5001F0ED0B6F5041FE4
:1006200018D10AE0CB6815E0CB681B1D12E0CB683F
:1006300008330FE0CB680C330CE08B682BB1012B37
:100640004FF0080303D0476104E0042302E0076190
:1006500000E00023FF2A01D8064601E000F104066D
:100660004FEA840501D9A5F12005376808FA05FC91
:1006700027EA0C0703FA05F547EA050737604D68D6
:10068000ED006ED53D4DAE6946F00106AE61AD6937
:1006900024F0030605F001050095394D7719BE6871
:1006A000A5072D0F08FA05FC26EA0C06DFF8D4C0D2
:1006B000604503D14FF0000C25E052E0DFF8C8C0E0
:1006C000604502D14FF0010C1DE0DFF8C0C060456D
:1006D00002D14FF0020C16E0DFF8B4C0604502D141
:1006E0004FF0030C0FE0DFF8ACC0604502D14FF0D3
:1006F000040C08E0DFF8A0C0604502D14FF0050C03
:1007000001E04FF0060C0CFA05FC4CEA060CC7F8A9
:1007100008C04D68D9F80060ED024D4601D516437A
:1007200000E096432E604D68DAF80060AD02554651
:1007300001D5164300E096432E604D68DBF800605B
:10074000AD035D4601D5164300E096432E604D682B
:10075000DEF80060ED03754601D5164300E09643D0
:100760002E60641C0A6832FA04F57FF42EAFBDE8EF
:10077000F88F000008040140000011100010024032
:100780000000014000080140000C01400010014041
:100790000014014000180140001C0140C26821EA19
:1007A00002030A4043EA0241016170470AB1016154
:1007B00070470904FBE700000148806870470000AB
:1007C000040000200248816802781144816070476B
:1007D00004000020074810B5016841F010010160D5
:1007E000032000F075F80F2000F006F800F024F860
:1007F000002010BD0020024070B50D4D04464FF49E
:100800007A712878B1FBF0F00A490968B1FBF0F081
:1008100000F01AFE48B9102C07D200222146501EC3
:1008200000F036F800206C6070BD012070BD000043
:1008300004000020100000200C4808B5816941F038
:1008400001018161816901F001010091C16941F0FB
:100850008051C161C069064900F08050009048682D
:1008600020F0E06040F08070486008BD0010024059
:1008700000000140002809DB00F01F020121914027
:100880004009800000F1E020C0F80011704700002E
:10089000F0B40E4B1B68C3F30223C3F10704042C0E
:1008A00000D904241D1D072D01D2002300E0DB1E0A
:1008B000012606FA04F56D1E0D409D409E40761EF1
:1008C000164045EA0601F0BC00F025BF0CED00E043
:1008D000064A00F0070110684FF6FF03184040EA8F
:1008E0000120034908431060704700000CED00E050
:1008F0000000FA052DE9F0470D46040067D0DFF847
:100900001881D8F8000000F00700A8420CD2D8F8EF
:10091000001021F007012943C8F80010D8F80000A2
:1009200000F00700A84252D120683C4E810712D542
:10093000400703D5706840F4E060706020780007DD
:1009400003D5706840F4605070607068A16820F052
:10095000F000084370602078C00727D06068012845
:1009600010D03168022810D0890700292FDA716869
:1009700021F0030101437160FFF71EFF074641F2BA
:1009800088390CE031688903EFE78901EDE7FFF76B
:1009900013FFC11B494502D90320BDE8F0877068E9
:1009A000616800F00C00B0EB810FF0D1D8F80010B6
:1009B000404601F00701A9420BD9016821F0070167
:1009C00029430160006800F00700A84201D001201F
:1009D000E3E72078400705D57068E16820F4E0601F
:1009E000084370602078000706D57068216920F4FC
:1009F000605040EAC100706000F018F87168084A61
:100A0000C1F30311515CC8400649086006480068FC
:100A1000FFF7F2FE0020C0E7002002400010024075
:100A20008A17000810000020080000200E4B5968AB
:100A30000E4801F00C02042A11D0082A0FD10C48EC
:100A4000C1F38342C903805C0AD55968084AC1F3DF
:100A50004041921E515C054A5043B0FBF1F0704793
:100A600004494843704700000010024000127A0019
:100A70007A17000800093D002DE9F84F04006FD0F7
:100A80002078BE4DC00747D06868C0F381000128B8
:100A900007D06868C0F38100022809D16868C003E4
:100AA00006D52868800337D560680028E7D033E092
:100AB0006068B0F5803F0BD010B1B0F5A02F11D019
:100AC000286820F480302860286820F4802002E024
:100AD000286840F480302860606888B1FFF76CFEB9
:100AE000064609E0286840F480202860F0E7FFF718
:100AF00063FE801B642873D828688003F7D50BE059
:100B0000FFF75AFE064604E0FFF756FE801B6428F6
:100B1000F1D828688003F7D42078DFF86482800752
:100B20004FF0010A4FF0000939D5686810F00C0F3A
:100B300007D06868C0F38100022809D16868C00343
:100B400006D42868800714D52069012808D110E050
:100B50002069B0B1C8F800A0FFF72EFE064605E0F8
:100B600007E1FFF729FE801B0228C4D82868800708
:100B7000F7D52868616920F0F80040EAC1002860D4
:100B80000DE0C8F80090FFF717FE064604E0FFF7F7
:100B900013FE801B022823D828688007F7D420780A
:100BA00000072CD57748A169D9B1C0F800A0FFF79C
:100BB00003FE064604E0FFF7FFFD801B02280FD866
:100BC000686A8007F7D570484FF4FA510068B0FBA7
:100BD000F1F0009000BF0098411E0091FAD20EE0A3
:100BE0007CE0C0F80090FFF7E7FD064604E0FFF761
:100BF000E3FD801B022871D8686A8007F7D420784B
:100C000040075BD5E8690027C00008D4E86940F0D8
:100C10008050E861E869012700F0805000905B484F
:100C20000168C90511D40168834641F480710160EF
:100C3000FFF7C2FD064604E0FFF7BEFD801B6428F7
:100C40004CD8DBF80000C005F6D5E06801280AD0D2
:100C500008B1052813D0286A20F001002862286A0C
:100C600020F0040002E0286A40F001002862E068F9
:100C700041F2883B88B1FFF79FFD064609E0286AEC
:100C800040F004002862EEE7FFF796FD811B59450E
:100C90005BD8286A8007F7D50BE0FFF78DFD064685
:100CA00004E0FFF789FD811B59454ED8286A80076B
:100CB000F7D41FB1E86920F08050E861E069A8B37B
:100CC0006968C1F38101022946D00228484606D04E
:100CD000C8F86000FFF770FD044639E035E047468C
:100CE000C8F86000FFF768FD064604E0FFF764FD02
:100CF000801B022829D828688001F7D4206AB0F523
:100D0000803F05D16868A16820F40030084368601E
:100D1000D4E908010843696821F474110843686044
:100D2000C7F860A0FFF748FD044605E023E0FFF7A1
:100D300043FD001B022808D828688001F7D51AE077
:100D4000FFF73AFD001B022802D90320BDE8F88F07
:100D500028688001F4D40EE00128F7D06868226A80
:100D600000F48031914204D1616A00F4701088422D
:100D700001D00120EAE70020E8E70000001002406F
:100D800000004242800442421000002000700040F7
:100D90007047000038B50446006842688168C9435E
:100DA0004B0606D5CB0704D1D3435B0601D4216C97
:100DB00005E08B0708D4D3431B0605D4616C01B052
:100DC0002046BDE8304008478B0601D54B0646D487
:100DD000D3439B0643D44B060AD494F85130032BDB
:100DE0003ED0636D43F004036365C368836800937A
:100DF000890609D4616D41F0010161658168009146
:100E0000016821F040010160606D002827D0206852
:100E1000416821F0E0014160012084F85100900711
:100E200022D02068416821F003014160104DE06C40
:100E300040B14563E06CFFF70FFB18B1606D40F007
:100E400040006065A06C002809D04563A06CFFF7E6
:100E500003FB002803D0606D40F04000606538BDA2
:100E6000C1688068009038BD2046FFF791FF38BD0B
:100E70006515000870B5040009D0606A002540B10E
:100E800025616561A56294F8510040B10CE0012034
:100E900070BD6068B0F5827FF4D0E561F2E784F858
:100EA0005050204600F040F8022084F8510020689D
:100EB000016821F040010160A088218900F482705E
:100EC00001F404410843A18901F400610843217C35
:100ED00001F002010843217D01F001010843218B4B
:100EE00001F400710843217F01F03801084394F8B0
:100EF000201001F080010843218D01F400510843C6
:100F000021680860A069042101EA10402168486056
:100F10002068C16921F40061C1616565012084F820
:100F20005100002070BD000030B585B00024009451
:100F30000194029403940068184988422BD1184800
:100F4000816941F480518161816901F4805104918A
:100F5000816941F0040181618069124D00F0040053
:100F60000490A02000900220019003200390694685
:100F70002846FFF71BFB4020CDE9000469462846C0
:100F80000294FFF713FB002211462320FFF780FC99
:100F90002320FFF76FFC05B030BD0000003001409A
:100FA00000100240000801402DE9F84F044690F877
:100FB00051001D461746884601283AD160684FF017
:100FC0000409B0F5827F01D1A06840B3FFF7F4FBBC
:100FD0000646B8F1000F74D0002F72D094F850007C
:100FE000012826D04FF0010A84F850A084F85190CF
:100FF0004FF00009C4F85490C4F83880A787E787F9
:10100000C4F83090A4F83490A4F83690C4F8409016
:10101000C4F84490A068B0F5004F0CD015E084F8F7
:101020005190009313460A46204600F01AF9BDE895
:10103000F88F0220FBE72068016821F04001016081
:101040002068016821F48041016020680168490638
:1010500003D4016841F040010160E068B8B132E0BA
:1010600020688168C90709D0007BA16B0870A06B5C
:10107000401CA063E08F401EE08708E0FFF79CFB68
:10108000801BA84202D3681C01D031E07DB3E08F01
:101090000028E5D11AE020688168C90709D0C06836
:1010A000A16B0880A06B801CA063E08F401EE087CE
:1010B00009E0FFF781FB801BA84203D3681C02D024
:1010C00016E012E09DB1E08F0028E4D132462946B7
:1010D000204600F04FFA08B12020606584F851A046
:1010E00084F85090606D0028A1D001209FE7FFE7B1
:1010F00084F851A084F85090032098E72DE9F84F28
:101100001D4617468A460446FFF756FB064694F8E6
:101110005100012826D1BAF1000F77D0002F75D0E9
:1011200094F8500001281DD04FF0010984F8509028
:10113000032084F851004FF00008C4F85480C4F82C
:1011400030A0A786E786C4F83880A4F83C80A4F8CD
:101150003E80C4F84480C4F84080A068B0F5004FD9
:1011600003D00CE00220BDE8F88F2068016821F070
:10117000400101602068016841F4804101602068FD
:101180000168490603D4016841F040010160E0684C
:10119000B0F5006F606803D028B3012F23D03FE083
:1011A00008B1012F1BD1206B21680088C86006E0C0
:1011B00020688168890709D5216B0988C160206B87
:1011C000801C2063E08E401EE08608E0FFF7F4FA02
:1011D000801BA84202D3681C01D02FE075B3E08EBB
:1011E0000028E5D11FE0206B21680078087306E035
:1011F0002068816889070AD5216B09780173206B03
:10120000401C2063E08E401EE08609E027E0FFF7E7
:10121000D3FA801BA84202D3681C01D00EE06DB146
:10122000E08E0028E4D132462946204600F0D0F96D
:1012300008B120206065A06830B109E084F85190C1
:1012400084F8508003208EE72068C1688068009091
:1012500084F8519084F85080606D002883D001207C
:1012600081E72DE9FF4F81B01F46934604460125D3
:101270000E9EFFF7A1FA804694F85100616801289C
:1012800006D0B1F5827F3CD1A168C9BB042838D112
:101290000298002870D0BBF1000FFBD0002FF9D0CE
:1012A00094F8500001282CD04FF0010A84F850A087
:1012B00094F85100042802D0052084F851004FF022
:1012C0000009C4F85490C4F838B0E787A78702999A
:1012D0002163E786A786C4F84090C4F8449020684C
:1012E0000168490603D4016841F040010160E068EB
:1012F000B0F5006F606808D0E8B3012F47D07DE0FB
:10130000FFE7022005B0BDE8F08F08B1012F37D10B
:10131000206B21680088C860206B801C2063E08EF1
:10132000401EE0862CE02068816889070DD5E18E9B
:1013300059B1012D09D1216B0988C160206B801C36
:101340002063E08E401EE086002520688168C90782
:101350000BD0E18F49B1C068A16B0880A06B801CE5
:10136000A063E08F401EE0870125FFF725FAA0EB80
:101370000800B04201E00AE064E001D3701C4ED1E5
:10138000E08E0028CFD1E08F0028CCD13CE0206B4C
:10139000216800780873206B401C2063E08E401E9B
:1013A000E0862BE02068816889070DD5E18E59B170
:1013B000012D09D1216B09780173206B401C20633A
:1013C000E08E401EE086002520688168C9070BD0AA
:1013D000E18F49B1C068A16B0870A06B401CA0638D
:1013E000E08F401EE0870125FFF7E6F9A0EB08003B
:1013F000B04202D3701C01D011E086B1E08E00280B
:10140000D0D1E08F0028CDD142463146204600F0B1
:10141000DFF850B12020606584F8509012E084F825
:1014200051A084F8509003206CE7A06818B9206898
:10143000C1688068009084F851A084F85090606D75
:101440000028F1D001205DE710B5401EB0F1807F8B
:1014500001D3012010BD4FF0E02460610F2160171F
:1014600000F059F90020A06107202061002010BD84
:10147000FEE700002DE9F04186B0002422480094E8
:10148000019402940394816941F020018161816992
:1014900001F020010491816941F0040181618169B9
:1014A00001F004010491816941F0080181618069C2
:1014B000DFF8588000F008004FF480750490002297
:1014C00029464046FFF772F9009502270125039748
:1014D000CDE9015469464046FFF768F804260397B2
:1014E0000096CDE9015469464046FFF75FF80320B6
:1014F000CDE90250CDE9006569464046FFF756F850
:1015000006B0BDE8F0810000001002400008014074
:101510000E4810B50C4901604FF482714160002102
:101520008160C1604FF400720161C0E90512C161C0
:101530000162416281620A21C162FFF79BFC0028BF
:1015400001D072B6FEE710BD00300140140000204B
:10155000FEE7FEE7704700000148FFF71BBC0000F4
:101560001400002010B5406A0021C187C186FFF732
:101570000FFC10BDF8B5044640684FF482739842E2
:1015800017D1A0684FF48065B0F5004F01D0A84294
:101590000FD12068066826F0400606606068984211
:1015A00007D1A068A84204D100920B460022012175
:1015B00003E000920B4600228021204600F022F832
:1015C000002804D0606D40F0200060650320F8BD65
:1015D000F8B515460E460B4600920446012202213C
:1015E00000F010F840B933460022802120460095D3
:1015F00000F008F8002804D0606D40F0200060651D
:101600000320F8BD2DE9F8431E469146884604465E
:10161000089DFFF7D1F8401B351AFFF7CDF80746B4
:1016200025480068C0F3CB30684338E0701C37D0E1
:10163000FFF7C2F8C01BA84203D215B1009860B3EF
:101640002CE02068416821F0E00141606068B0F55D
:10165000827F0BD1A068B0F5004F02D0B0F5806F4B
:1016600004D12068016821F040010160A06AB0F552
:10167000005F09D12068016821F4005101602068F1
:10168000016841F400510160012084F851000020FC
:1016900084F850000320BDE8F8830025401E009028
:1016A0002068816838EA010004D000204845BDD197
:1016B0000020F0E70120F9E7100000207047FFF755
:1016C00081B810B590B028216846FEF79FFD14211F
:1016D0000AA8FEF79BFD0220009001200490102034
:1016E0000024059007946846FFF7C6F908B172B662
:1016F000FEE70F20CDE90A040C940D9400210AA8FE
:101700000E94FFF7F7F8002801D072B6FEE710B08C
:1017100010BD7047FEE70907090E002804DB00F141
:10172000E02080F80014704700F00F0000F1E02086
:1017300080F8141D70470000FFF74CF8FFF7C1FF59
:10174000FFF798FEFFF7E4FEFEF7C5FD18B1FEF7C0
:10175000D7FD07490860074D4FF480744FF47A763F
:1017600021462846FFF71AF83046FEF70DFFF7E747
:1017700000000020000801400102020304050607E2
:1017800008090A0B0C0D0E0F1010000000000000DD
:10179000000001020304060708090000BC17000846
:1017A00000000020140000006C010008D0170008A1
:1017B00014000020BC0600008801000800000000A2
:1017C00001000000100000000000000000127A007C
:0400000508000131BD
:00000001FF
